:100000000C947D000C94A5000C94A5000C94A50004
:100010000C94A5000C94DB010C94A5000C94A50095
:100020000C94A5000C94A5000C94A5000C94A500BC
:100030000C94A5000C9404020C94A5000C94A5004B
:100040000C94E30A0C94A5000C94A5000C94A50054
:100050000C94A5000C94A5000C94A5000C9423020C
:100060000C94A5000C94A50041A042A1E045A3A4D6
:10007000A5A64BA74D484FA8504354A9AA58E1AB99
:10008000ACE2ADAE62AFB0B161B2B3B4E365B6B7E6
:10009000B8B9BABBBCBD6FBE7063BF79E478E5C0C8
:1000A000C1E6C2C3C4C5C6C7000000080002010003
:1000B0000003040700000000000000000102040823
:1000C00010204080010204081020010204081020C2
:1000D00004040404040404040202020202020303EE
:1000E0000303030300000000250028002B0000008C
:1000F0000000240027002A00AE0511241FBECFEF08
:10010000D8E0DEBFCDBF12E0A0E0B1E0ECEEF7E159
:1001100002C005900D92AC34B107D9F722E0ACE4EF
:10012000B2E001C01D92AD39B207E1F710E0CDE7B2
:10013000D0E004C02197FE010E94EE0BCC37D1071E
:10014000C9F70E9456020C94F40B0C9400002FB7D0
:10015000F894FC0180818823D9F0813049F58091A1
:10016000880090918900882341F0482F50E05093F7
:100170008900409388008150F6CF10928900109238
:100180008800809180008F7780938000219810C034
:100190008091B400882321F08093B4008150FACF7D
:1001A0001092B4008091B0008F7D8093B00053987E
:1001B0002FBF0895CF92DF92EF92FF92C0908F02EF
:1001C000D0909002E0909102F0909202A7019601E7
:1001D0000E94C605A70196010E94C70560938F0281
:1001E0007093900280939102909392020E94A506D0
:1001F000CB01FF90EF90DF90CF900895CF93DF93E6
:10020000CFE7D2E060E070E0CB01299139914991CC
:1002100059910E94C70522E0CF38D207B1F720E0FC
:1002200030E040E85EE30E946E07DF91CF910C94CE
:10023000DA00DF92EF92FF920F931F93CF93DF9339
:100240008C017B0180917C00807F826080937C00A8
:1002500080917A00806480937A0080917A0086FD94
:10026000FCCF609178007091790080E090E00E946E
:10027000DB062FE832EC4DE950E40E946E0720E0E7
:1002800030E040E85AE30E946E07F8016183728310
:1002900083839483C0917E02DD24D394DC0ED092BC
:1002A0007E02F4E0CF9FE0011124C158DD4F2FE81A
:1002B00032EC4DE950E40E94330620E030E048EC97
:1002C00052E40E946E07688379838A839B8324E0CB
:1002D000D21209C08FE792E00E94FE00F8019683D7
:1002E000858310927E02F701808181110DC080917B
:1002F000780090917900969587959695879590933B
:100300008900809388000CC0813051F4809178007E
:100310009091790096958795969587958093B400EE
:10032000109279001092780080917A008F7E8093ED
:100330007A00DF91CF911F910F91FF90EF90DF90A6
:100340000895CF93DF93FC018081882319F08130D9
:1003500099F02EC0EF01878180937A008185809388
:100360007B00838580937C00858580BFCF010E94C0
:10037000190181E088831CC0878580937A00818978
:1003800080937B00DB018C91882311F0858901C06B
:10039000838980937C0080B78F7780BF80B7886027
:1003A00080BF80B7826080BF80B7816080BF1082CD
:1003B000DF91CF9108951F920F920FB60F921124E3
:1003C0008F9300004A9906C081E0809379021092D1
:1003D0007B0207C04D9908C081E08093770210929C
:1003E0007D0210927C0209C04C9907C081E0809385
:1003F000780210927D0210927B0200008F910F9084
:100400000FBE0F901F9018951F920F920FB60F926C
:1004100011248F939F93EF93FF93E4E8F0E08081A2
:1004200091818A509D4391838083809173028F5F75
:1004300080937302FF91EF919F918F910F900FBE68
:100440000F901F9018951F920F920FB60F921124C4
:100450008F939F93EF93FF9310BEE0E8F0E08081CD
:100460008F778083E0EBF0E080818F7D808321981F
:10047000539810928900109288001092B40082E084
:1004800090E090934D0280934C0280B781E080937E
:100490007A0280917A0280934E02FF91EF919F91B0
:1004A0008F910F900FBE0F901F9018957894509ACF
:1004B000519A209A2F9A80917F00816080937F00CB
:1004C00080E380937E008BB184638BB98AB18AB953
:1004D0008091680084608093680080916D008463DF
:1004E00080936D0082E090E090934D0280934C02E7
:1004F000C2E0D0E001E010E082E0F82E90917602B8
:10050000209174028091750230914E0240917902DF
:10051000442361F0911106C010934D0200934C02E8
:1005200080E020E010927902942F1FC04091770262
:10053000442361F0211106C0D0934D02C0934C02B8
:1005400080E090E010927702242F0FC04091780253
:10055000442359F0811106C010924D0210924C02B2
:1005600090E020E010927802842F3130C1F108F43D
:1005700001C1323059F62093740290937602809331
:10058000750210927A0010BE10927B008CE284B942
:100590001AB817B88FEF8BB985B988B9109268006F
:1005A00010926D008EE592E00E944A0940E067E0FB
:1005B0008EE592E00E94510969E871E08EE592E0D3
:1005C0000E94480A41E067E08EE592E00E945109EE
:1005D00060EB71E08EE592E00E94480ABDC0209376
:1005E000740290937602809375028FE492E00E94E9
:1005F000A7008091070180937A0080910901809380
:100600007B0080910B0180937C0080910D0180BF65
:1006100080915002809380008091520280938100EB
:100620008091540280936F008091560290915702FE
:10063000909385008093840040E060E08EE592E036
:100640000E9451096DE271E08EE592E00E94480A35
:1006500041E060E08EE592E00E9451096CE471E0B7
:100660008EE592E00E94480A109273028091730214
:100670008130E1F780914F02811104C080917C00AC
:10068000807F06C0813031F480917C00807F816062
:1006900080937C0080917A00806480937A008091BE
:1006A0007A0086FDFCCF609178007091790080E03F
:1006B00090E00E94DB062FE832EC4DE950E40E9406
:1006C0006E0720E030E040E85AE30E946E0723E323
:1006D00033E343E550E40E94690787FD03C0F092CD
:1006E0004E020CCF1092730210927B0210927D0288
:1006F00010927C021092760210927402109275028F
:10070000809173028530E1F710924E0280B710920B
:100710007A028EE592E00E944A0940E064E08EE5AC
:1007200092E00E94510964E671E08EE592E00E9439
:10073000480A41E064E08EE592E00E94510967E7D3
:1007400071E08EE592E00E94480A10927302809157
:1007500073028530E1F7D2CE2FEF89E698E1215080
:1007600080409040E1F700C000008EE592E00E94DA
:10077000DB09F2CF20937402909376028093750286
:10078000909158029093800080915A02809381004A
:100790009093B0008093B10080915C0280936F00D1
:1007A00080914C0290914D0299278130910541F042
:1007B0008230910509F4FFC0892B09F09FCE7DC0DE
:1007C00080917D0281113BC010924F0280917A028C
:1007D00081110DC08FE492E00E94A7009FB7F894AA
:1007E000219A809180008068809380009FBF8091D3
:1007F0004F02811102C082E001C081E088B9589A9D
:1008000081E080937D028EE592E00E944A0940E0FB
:1008100060E08EE592E00E94510963ED71E08EE5A3
:1008200092E00E94480A41E060E08EE592E00E947A
:10083000510961EF71E08EE592E00E94480A8091D3
:100840007D02811102C05898F2C041E069E08EE556
:1008500092E00E9451096FE472E080E091E00E9412
:10086000A10160910501709106014AE050E08EE51A
:1008700092E00E94A70A80910501909106010A97D3
:1008800060F441E06AE08EE592E00E94510963E085
:1008900072E08EE592E00E94480A41E06CE08EE54D
:1008A00092E00E94510965E28EE592E00E944A0AB8
:1008B00080917A02882319F2C6CF80917C0281113F
:1008C0003CC081E080934F0280917A0281110DC07B
:1008D0008FE492E00E94A7009FB7F894539A80910A
:1008E000B00080628093B0009FBF80914F02811161
:1008F00002C082E001C081E088B9289A81E080933B
:100900007C028EE592E00E944A0940E060E08EE5BC
:1009100092E00E94510966E072E08EE592E00E944A
:10092000480A41E060E08EE592E00E94510961EFE3
:1009300071E08EE592E00E94480A80917C0281116C
:1009400002C0289874C041E069E08EE592E00E9400
:1009500051096FE472E080E091E00E94A101609192
:100960000501709106014AE050E08EE592E00E9498
:10097000A70A80910501909106010A9760F441E071
:100980006AE08EE592E00E94510963E072E08EE534
:1009900092E00E94480A41E06CE08EE592E00E94FD
:1009A000510965E28EE592E00E944A0A80917A023E
:1009B000882319F2C6CF80917B02811133C08FE466
:1009C00092E00E94A7008091070180937A008091B5
:1009D000090180937B0080910B0180937C008091C2
:1009E0000D0180BF599A81E080937B028EE592E0F1
:1009F0000E944A0940E061E08EE592E00E945109C0
:100A000065E272E08EE592E00E94480A41E060E013
:100A10008EE592E00E94510961EF71E08EE592E06F
:100A20000E94480A80917B02811106C059988EE588
:100A300092E00E944A0962CD41E069E08EE592E0D1
:100A40000E94510980917C00807F826080937C00AD
:100A500080917A00806480937A0080917A0086FD8C
:100A6000FCCF609178007091790080E090E00E9466
:100A7000DB062FE832EC4DE950E40E946E0720E0DF
:100A800030E040E85AE30E946E07609301017093E2
:100A9000020180930301909304012FE832EC4DE9A9
:100AA00050E40E94330620E030E048EC52E40E941B
:100AB0006E074B015C010E94AC06709306016093C7
:100AC0000501E0917E0281E08E0F80937E0224E09A
:100AD000E29FF0011124E158FD4F80829182A282B1
:100AE000B382843051F48FE792E00E94FE0090932D
:100AF00006018093050110927E02109279001092F7
:100B0000780060910501709106014AE050E08EE5A1
:100B100092E00E94A70A80910501909106010A9730
:100B200060F441E06AE08EE592E00E94510963E0E2
:100B300072E08EE592E00E94480A41E06CE08EE5AA
:100B400092E00E94510965E28EE592E00E944A0A15
:100B500080917A02882309F465CF68CF6AE08EE538
:100B600092E00E94CA0988E0E7E1F1E0A0E5B2E086
:100B700001900D928A95E1F786E0EFE1F1E0A8E5BA
:100B8000B2E001900D928A95E1F708955058BB2785
:100B9000AA270E94DE050C942F070E94210738F037
:100BA0000E94280720F039F49F3F19F426F40C9492
:100BB0001E070EF4E095E7FB0C941807E92F0E943E
:100BC000400758F3BA17620773078407950720F0A8
:100BD00079F4A6F50C9462070EF4E0950B2EBA2F6B
:100BE000A02D0B01B90190010C01CA01A001112433
:100BF000FF27591B99F0593F50F4503E68F11A16DF
:100C0000F040A22F232F342F4427585FF3CF46956F
:100C100037952795A795F0405395C9F77EF41F1691
:100C2000BA0B620B730B840BBAF09150A1F0FF0F5B
:100C3000BB1F661F771F881FC2F70EC0BA0F621F47
:100C4000731F841F48F4879577956795B795F79537
:100C50009E3F08F0B0CF9395880F08F09927EE0FCC
:100C60009795879508950E9447060C942F070E9438
:100C7000280758F00E94210740F029F45F3F29F02F
:100C80000C94180751110C9463070C941E070E94D2
:100C9000400768F39923B1F3552391F3951B550B46
:100CA000BB27AA2762177307840738F09F5F5F4F3F
:100CB000220F331F441FAA1FA9F335D00E2E3AF07E
:100CC000E0E832D091505040E695001CCAF72BD096
:100CD000FE2F29D0660F771F881FBB1F26173707E7
:100CE0004807AB07B0E809F0BB0B802DBF01FF2719
:100CF00093585F4F3AF09E3F510578F00C941807D7
:100D00000C9463075F3FE4F3983ED4F386957795A0
:100D10006795B795F7959F5FC9F7880F911D9695D1
:100D2000879597F90895E1E0660F771F881FBB1F2D
:100D3000621773078407BA0720F0621B730B840BDA
:100D4000BA0BEE1F88F7E09508950E94AC066894F0
:100D5000B1110C94630708950E94480788F09F57CB
:100D600098F0B92F9927B751B0F0E1F0660F771FCF
:100D7000881F991F1AF0BA95C9F714C0B13091F0C5
:100D80000E946207B1E008950C946207672F782FE4
:100D90008827B85F39F0B93FCCF38695779567958A
:100DA000B395D9F73EF490958095709561957F4FF6
:100DB0008F4F9F4F0895E89409C097FB3EF490959C
:100DC0008095709561957F4F8F4F9F4F9923A9F024
:100DD000F92F96E9BB279395F695879577956795B3
:100DE000B795F111F8CFFAF4BB0F11F460FF1BC0F7
:100DF0006F5F7F4F8F4F9F4F16C0882311F096E98A
:100E000011C0772321F09EE8872F762F05C0662337
:100E100071F096E8862F70E060E02AF09A95660FF0
:100E2000771F881FDAF7880F9695879597F90895A9
:100E300097F99F6780E870E060E008959FEF80EC8D
:100E4000089500240A941616170618060906089530
:100E500000240A9412161306140605060895092E96
:100E60000394000C11F4882352F0BB0F40F4BF2B05
:100E700011F460FF04C06F5F7F4F8F4F9F4F089545
:100E800057FD9058440F551F59F05F3F71F047953B
:100E9000880F97FB991F61F09F3F79F08795089520
:100EA000121613061406551FF2CF4695F1DF08C03F
:100EB000161617061806991FF1CF8695710561055C
:100EC00008940895E894BB2766277727CB0197F904
:100ED00008950E94DB0708F48FEF08950E948107B0
:100EE0000C942F070E94210738F00E94280720F059
:100EF000952311F00C9418070C941E0711240C94E0
:100F000063070E94400770F3959FC1F3950F50E06F
:100F1000551F629FF001729FBB27F00DB11D639FAB
:100F2000AA27F00DB11DAA1F649F6627B00DA11D51
:100F3000661F829F2227B00DA11D621F739FB00DF7
:100F4000A11D621F839FA00D611D221F749F332767
:100F5000A00D611D231F849F600D211D822F762F00
:100F60006A2F11249F5750409AF0F1F088234AF0DD
:100F7000EE0FFF1FBB1F661F771F881F9150504049
:100F8000A9F79E3F510580F00C9418070C94630755
:100F90005F3FE4F3983ED4F3869577956795B795D0
:100FA000F795E7959F5FC1F7FE2B880F911D9695EA
:100FB000879597F90895990F0008550FAA0BE0E857
:100FC000FEEF16161706E807F907C0F0121613060B
:100FD000E407F50798F0621B730B840B950B39F44B
:100FE0000A2661F0232B242B252B21F408950A26B1
:100FF00009F4A140A6958FEF811D811D089580E021
:1010000090E0089508959CB59C7F282F2370922B23
:101010009CBD2DB582FB992790F9822F8E7F892B5D
:101020008DBD08951F93CF93DF93EC0111E01887D6
:1010300069871C8382E08D8383E08E83229A0E94DD
:10104000AD0A84E08A870E9403081B868CB5837FE3
:101050008CBD1C878CB58F7D8CBDDF91CF911F918E
:101060000895CF93DF93EC018A850E9403088C8555
:10107000811103C08CB5806202C08CB58F7D8CBDA0
:101080008CB5837F9B85892B8CBD2A988F818EBDE3
:1010900000000DB407FEFDCF8EB52A9ADF91CF91E7
:1010A0000895CF92DF92EF92FF92CF93DF93EC01FE
:1010B0008885811117C060E08E810E949D0B81E0C0
:1010C00090E00E942D0B61E08E810E949D0B81E0DB
:1010D00090E00E942D0B60E08E810E949D0B84E6C3
:1010E00090E03EC0C12CD12C7601C394D701C6013B
:1010F0000E8004C0880F991FAA1FBB1F0A94D2F745
:1011000080959F8189238F83CE010E94310881E0E1
:1011100090E00E942D0BD701C6010E8004C0880FFD
:10112000991FAA1FBB1F0A94D2F72F81822B8F838E
:10113000CE010E94310881E090E00E942D0B0E80CC
:1011400004C0CC0CDD1CEE1CFF1C0A94D2F7C0942A
:101150008F81C822CF82CE010E94310888E290E0C0
:10116000DF91CF91FF90EF90DF90CF900C942D0BFB
:101170008F929F92AF92BF92CF92DF92EF92FF92A7
:10118000CF93DF93EC0184E090E0262F30E0812CB8
:10119000912C54018394AC0144505109B90102C00F
:1011A000759567954A95E2F7EF8160FF0DC075016F
:1011B0006401082E04C0CC0CDD1CEE1CFF1C0A943C
:1011C000D2F7CE2ACF820DC0B501A401082E04C0EB
:1011D000440F551F661F771F0A94D2F740954E2380
:1011E0004F83019688309105B1F6CE010E943108F7
:1011F000CE01DF91CF91FF90EF90DF90CF90BF9025
:10120000AF909F908F900C945108FC0117820C9422
:10121000B8081F93CF93DF93FC01162F8085882396
:1012200091F134812781442371F041E050E060E086
:1012300070E004C0440F551F661F771F3A95D2F720
:10124000422B47830EC081E090E0A0E0B0E004C0F4
:10125000880F991FAA1FBB1F3A95D2F7809582234A
:101260008783EF01612F70E084E0759567958A951B
:10127000E1F7CF010E94B808612FCE01DF91CF9135
:101280001F910C94B808DF91CF911F91089540E011
:101290000C94090961E00E94470980ED97E00C94E5
:1012A0002D0BCF93DF93CDB7DEB728970FB6F89409
:1012B000DEBF0FBECDBF9C0188E0E5E2F1E0DE01BC
:1012C000119601900D928A95E1F7F90181894817ED
:1012D00010F04FEF480FFE013196E40FF11DE40FBF
:1012E000F11D9081690F6068C90128960FB6F894C6
:1012F000DEBF0FBECDBFDF91CF910C944709FC013B
:101300006685262F246026876C600C9447091F93FE
:10131000CF93DF93EC018D8588608D8712E0198B68
:101320001A8A88EA91E60E942D0B63E0CE010E94A2
:10133000050980E49CE90E942D0B63E0CE010E9428
:10134000050980E49CE90E942D0B63E0CE010E9418
:10135000050980E49CE90E942D0B62E0CE010E9409
:10136000050980E49CE90E942D0B6D856062CE0129
:101370000E94470984E08E87CE010E947F09CE013A
:101380000E944A091F8766E0CE01DF91CF911F912D
:101390000C944709CF93DF93EC011B821A8284E4FB
:1013A00092E099838883CE010E941208CE01DF91DA
:1013B000CF910C94870968E10C94470967FF23C01B
:1013C000603C28F0605DDC0154966C931FC06F7325
:1013D000DC015496EC91E11105C0613051F441E01B
:1013E00062EA12C0E13029F4613119F441E065EBA1
:1013F0000BC0B0E4EB9FF00111247097E60FF11DD4
:10140000E859FF4F649141E00E94090981E090E0B2
:101410000895CF92DF92EF92FF920F931F93CF9395
:10142000DF936C017A018B01C0E0D0E0CE15DF05BF
:1014300081F0D8016D918D01D601ED91FC91019063
:10144000F081E02DC6010995892B11F02196EECF90
:101450007E01C701DF91CF911F910F91FF90EF9017
:10146000DF90CF9008956115710579F0FB0101902F
:101470000020E9F73197AF01461B570BDC01ED91D6
:10148000FC910280F381E02D099480E090E00895C2
:101490000C94330ADC01ED91FC910190F081E02D78
:1014A00009948F929F92AF92BF92EF92FF920F9307
:1014B0001F93CF93DF93CDB7DEB7A1970FB6F89404
:1014C000DEBF0FBECDBF7C01FA01CB0119A22230D5
:1014D00008F42AE08E010F5D1F4F822E912CA12C63
:1014E000B12CBF01A50194010E94CC0BF901CA01E6
:1014F000015011096A3010F4605D01C0695CD801C7
:101500006C93232B242B252B61F7B801C7010E9474
:10151000330AA1960FB6F894DEBF0FBECDBFDF91A0
:10152000CF911F910F91FF90EF90BF90AF909F9040
:101530008F9008952115310541F4DC01ED91FC9166
:101540000190F081E02D642F09940C94510A9A01C6
:10155000AB0160E070E00C949A0ACF93CFB7F89497
:1015600080919302811127C0EAEDF0E08491E6ECCE
:10157000F0E09491E82FF0E0EE0FFF1FE251FF4FF3
:10158000A591B491EC91E92321F461E08AE00E94F5
:101590009D0B61E08AE00E94610B8CB580618CBD7F
:1015A0008CB580648CBD61E08DE00E94610B61E0D0
:1015B0008BE00E94610B809193028F5F8093930276
:1015C000CFBFCF9108951F920F920FB60F921124A3
:1015D0002F933F938F939F93AF93BF9380919502E7
:1015E00090919602A0919702B09198023091940246
:1015F00023E0230F2D3720F40196A11DB11D05C056
:1016000026E8230F0296A11DB11D2093940280931A
:10161000950290939602A0939702B09398028091BE
:10162000990290919A02A0919B02B0919C0201961E
:10163000A11DB11D8093990290939A02A0939B02E1
:10164000B0939C02BF91AF919F918F913F912F9149
:101650000F900FBE0F901F9018958230910538F0B3
:10166000880F991F880F991F05970197F1F7089523
:10167000833081F028F4813099F08230A1F0089510
:101680008730A9F08830B9F08430D1F4809180009F
:101690008F7D03C0809180008F77809380000895B4
:1016A00084B58F7702C084B58F7D84BD0895809105
:1016B000B0008F7703C08091B0008F7D8093B00021
:1016C0000895CF93DF9390E0FC01E454FF4F249101
:1016D000FC01E053FF4F8491882361F190E0880F73
:1016E000991FFC01E251FF4FC591D491FC01EC51CF
:1016F000FF4FA591B491611109C09FB7F8948881FB
:10170000209582238883EC912E230BC0623061F4F4
:101710009FB7F8948881322F309583238883EC918A
:101720002E2B2C939FBF06C08FB7F894E8812E2BE9
:1017300028838FBFDF91CF9108951F93CF93DF93BD
:10174000282F30E0F901E855FF4F8491F901E45466
:10175000FF4FD491F901E053FF4FC491CC23C1F066
:10176000162F81110E94380BEC2FF0E0EE0FFF1FB7
:10177000EC51FF4FA591B4919FB7F894111104C09B
:101780008C91D095D82302C0EC91DE2BDC939FBFC7
:10179000DF91CF911F910895A1E21A2EAA1BBB1BC6
:1017A000FD010DC0AA1FBB1FEE1FFF1FA217B3072D
:1017B000E407F50720F0A21BB30BE40BF50B661F43
:1017C000771F881F991F1A9469F760957095809507
:1017D00090959B01AC01BD01CF010895EE0FFF1F55
:0C17E0000590F491E02D0994F894FFCFDF
:1017EC0000000000000000870000004000800000A6
:1017FC0000400000000100000005000100F6C201DD
:10180C0000010000000000400014005400D090D0F3
:10181C00B2D0B0D180D0B8D0B9D0BDD18BD0B92096
:10182C00D180D0B5D0B6D0B8D0BC2100D0BFD0B507
:10183C00D180D0B5D0B3D180D183D0B7D0BAD0B00D
:10184C002E2E2E00D09FD180D0BED0B2D0B5D1805C
:10185C00D18CD182D0B500D188D0BFD0B8D0BDD07A
:10186C00B4D0B5D0BBD18C2100D09AD0BED180D011
:10187C00BED182D0BAD0BED0B520D0B7D0B0D0BCFB
:10188C00D18BD0BAD0B0D0BDD0B8D0B52E2E2E00C2
:10189C00D0A3D181D182D180D0B0D0BDD0B8D182EB
:1018AC00D0B520D0BFD180D0B8D187D0B8D0BDD1E1
:1018BC00832100D09FD180D18FD0BCD0BED0B52099
:1018CC00D0B2D180D0B0D189D0B5D0BDD0B8D0B540
:1018DC0000D181D0BAD0BED180D0BED181D182D13D
:1018EC008C3A00202000D09ED0B1D180D0B0D182D3
:1018FC00D0BDD0BED0B520D0B2D180D0B0D189D09F
:10190C00B5D0BD2E00D0A8D0BFD0B8D0BDD0B4D0EB
:10191C00B5D0BBD18C20D0B2D18BD0BAD0BB2100EA
:0C192C0000000000DE09090AFF070208A5
:00000001FF
